:020000020000FC
:1000000000E805BF00E000BF0FE50DBF02E00EBF36
:1000100023D039D002EB07BB05E50DB968D0112715
:10002000222790D04FD0009160005BD0FFCF0D52BF
:10003000464944205461670048E20EC044E60CC0C3
:1000400048EC0AC044E014C04AE012C044E110C0C9
:1000500040E50EC048EC0CC045E000000000000088
:10006000000000004A95E9F7403061F04A95A1F799
:10007000D0E3C3E0000000002197F1F7403011F019
:100080004A95B1F70895F4DF08E300930020E4DF18
:1000900008E300930020E0DF0CE000930020DCDFA9
:1000A0000DD0CADF06E000930020D6DF09D0F0E0D3
:1000B000EEE2C2DF00270ED0CBDF089501E007C0DB
:1000C00000E805C000EC03C00093002108950093F0
:1000D000002008950591003049F0F6DFB1DFC8DF58
:1000E000F9CFF2DFADDFC4DF01C0FBCF089501E03F
:1000F00008BB10E020E035D0AFDF12E020EB31D0BC
:10010000ABDF15E020E030E036D0A6DF10E02DE0D8
:1001100028D0A2DF12E020EB24D09EDF18E22EE8E8
:1001200020D09ADF16E02FE71CD096DF1CE228E1F2
:1001300018D092DF1DE228E114D08EDF1EE22FE0FE
:1001400010D0089515E026E20CD010E027E009D089
:10015000779BFECF0FB10093600015E025E00BD038
:10016000089500E008BB1FB92FB901E008BB08954E
:10017000779BFECF089500E008BB1FB92FB93FB9A8
:0601800001E008BB089538
:00000001FF
