:020000020000FC
:10000000789400E805BF00E000BF0FE50DBF02E0F7
:100010000EBF789403EB07BB00E00EB903E50DB902
:10002000C098C19A7AD0C19800E0B5D007E0B3D0AB
:10003000C19A00000000000000000000C19805E027
:10004000AED0312F05E0ABD0212F00E0A4D0C19A73
:100050002BBBFFCF779BFECF08950D52464944201E
:100060005461670048E20EC044E60CC048EC0AC088
:1000700044E014C04AE012C044E110C040E50EC0A4
:1000800048EC0CC045E0000000000000000000004B
:100090004A95E9F7403061F04A95A1F7D0E3C3E013
:1000A000000000002197F1F7403011F04A95B1F7B8
:1000B0000895F4DF08E300930020E4DF08E30093F1
:1000C0000020E0DF0CE000930020DCDF0DD0CADF71
:1000D00006E000930020D6DF09D0F0E0EAE5C2DFB9
:1000E00000270ED0CBDF089501E007C000E805C06F
:1000F00000EC03C0009300210895009300200895B0
:100100000591003049F0F6DFB1DFC8DFF9CFF2DF4B
:10011000ADDFC4DF01C0FBCF0895C19800E03BD044
:1001200044D0C19AC19802E036D000EB3ED0C19ACB
:10013000C19805E030D000E038D000E036D0C19A58
:10014000C19800E028D00DE030D0C19AC19808E2F3
:1001500022D00EE82AD0C19AC19806E01CD00FE741
:1001600024D0C19AC1980CE216D008E11ED0C19AE1
:10017000C1980DE210D008E118D0C19AC1980EE2E2
:100180000AD00FE012D0C19AC19805E004D006E26F
:100190000CD0C19A0895000F0FB90AD00895000F2E
:1001A00001600FB905D01FB108950FB901D00895AE
:1001B000779BFECF08951127F02E0695069506959C
:1001C00006950F7020E3020F0A3310F027E0020FAC
:1001D0000F930F2D13951130A1F31F910F910895D7
:1001E0001F9311270A5010F0105FFCCF065F010F1C
:0401F0001F910895BE
:00000001FF
