:020000020000FC
:100000000FE50DBF02E00DBF35D001EB07BB05E5E5
:100010000DB95FD080D0F12FE22F53D00D52464959
:1000200044205461670048E20EC044E60CC048EC2E
:100030000AC044E014C04AE012C044E110C040E5E8
:100040000EC048EC0CC045E00000000000000000BD
:1000500000004A95E9F7403061F04A95A1F7D0E3F6
:10006000C3E0000000002197F1F7403011F04A95FD
:10007000B1F70895F4DF08E300930020E4DF08E31C
:1000800000930020E0DF0CE000930020DCDF0DD0C7
:10009000CADF06E000930020D6DF09D0F0E0ECE1F3
:1000A000C2DF00270ED0CBDF089501E007C000E8D3
:1000B00005C000EC03C000930021089500930020C8
:1000C00008950591003021F0F6DFB1DFC8DFF9CFE8
:1000D00008950FEF08BB10E020E029D012E020EBDC
:1000E00026D015E020E030E02BD010E02DE01FD02E
:1000F00012E020EB1CD018E22EE819D016E02FE712
:1001000016D01CE228E113D01DE228E110D01EE237
:100110002FE00DD0089515E026E209D010E027E089
:1001200006D0779BFECF15E025E00AD0089500E0C9
:1001300008BB1FB900002FB900000FEF08BB0895DE
:1001400000E008BB1FB900002FB900003FB9000054
:060150000FEF08BB08954B
:00000001FF
