:020000020000FC
:100000000FE50DBF02E00EBF00E000BD0CE009B936
:1000100008E10AB906E800BDB0E0A0E60BB100783F
:10002000E9F30CB104C0FACFB0E0A0E60D910CB931
:10003000F5CFFFCF48E20EC044E60CC048EC0AC042
:1000400044E014C04AE012C044E110C040E50EC0D4
:1000500048EC0CC045E0000000000000000000007B
:100060004A95E9F7403061F04A95A1F7D0E3C3E043
:10007000000000002197F1F7403011F04A95B1F7E8
:100080000895F4DF08E300930020E4DF08E3009321
:100090000020E0DF0CE000930020DCDF0DD0CADFA1
:1000A00006E000930020D6DF09D0F0E0EAEEC2DFE0
:1000B00000270ED0CBDF089501E007C000E805C09F
:1000C00000EC03C0009300210895009300200895E0
:1000D0000591003049F0F6DFB1DFC8DFF9CFF2DF7C
:0E00E000ADDFC4DF01C0FBCF08954F4B000021
:00000001FF
