:020000020000FC
:10000000789400E805BF00E000BF0FE50DBF02E0F7
:100010000EBF789403EB07BB00E00EB903E50DB902
:10002000C098C19A7BD0C19800E0C8D007E0C6D084
:10003000C19A00000000000000000000C19805E027
:10004000C1D0312F05E0C4D0212F00E0C1D0C19A2A
:100050002BBBE9CFFFCF779BFECF08950D524649CA
:1000600044205461670048E20EC044E60CC048ECEE
:100070000AC044E014C04AE012C044E110C040E5A8
:100080000EC048EC0CC045E000000000000000007D
:1000900000004A95E9F7403061F04A95A1F7D0E3B6
:1000A000C3E0000000002197F1F7403011F04A95BD
:1000B000B1F70895F4DF08E300930020E4DF08E3DC
:1000C00000930020E0DF0CE000930020DCDF0DD087
:1000D000CADF06E000930020D6DF09D0F0E0ECE5AF
:1000E000C2DF00270ED0CBDF089501E007C000E893
:1000F00005C000EC03C00093002108950093002088
:1001000008950591003049F0F6DFB1DFC8DFF9CF7F
:10011000F2DFADDFC4DF01C0FBCF0895C19800E07E
:100120004DD056D0C19A00000000C19802E046D0E0
:1001300000EB4ED0C19A00000000C19805E03ED00F
:1001400000E046D000E044D0C19A00000000C19811
:1001500000E034D00DE03CD0C19A00000000C1980E
:1001600008E22CD00EE834D0C19A00000000C198FB
:1001700006E024D00FE72CD0C19A00000000C198FF
:100180000CE21CD008E124D0C19A00000000C19804
:100190000DE214D008E11CD0C19A00000000C19803
:1001A0000EE20CD00FE014D0C19A00000000C198FC
:1001B00005E004D006E20CD0C19A0895000F0FB9F3
:1001C0000AD00895000F01600FB905D01FB108953E
:1001D0000FB901D00895779BFECF08951127F02E17
:1001E00006950695069506950F7020E3020F0A33D3
:1001F00010F027E0020F0F930F2D13951130A1F38C
:100200001F910F9108951F9311270A5010F0105F4E
:0A021000FCCF065F010F1F91089557
:00000001FF
